{
  "_format": "hh-sol-artifact-1",
  "contractName": "MinhkaCoin",
  "sourceName": "contracts/MinhkaCoin.sol",
  "abi": [
    {
      "inputs": [],
      "stateMutability": "nonpayable",
      "type": "constructor"
    },
    {
      "anonymous": false,
      "inputs": [
        {
          "indexed": true,
          "internalType": "address",
          "name": "owner",
          "type": "address"
        },
        {
          "indexed": true,
          "internalType": "address",
          "name": "spender",
          "type": "address"
        },
        {
          "indexed": false,
          "internalType": "uint256",
          "name": "value",
          "type": "uint256"
        }
      ],
      "name": "Approval",
      "type": "event"
    },
    {
      "anonymous": false,
      "inputs": [
        {
          "indexed": true,
          "internalType": "address",
          "name": "previousOwner",
          "type": "address"
        },
        {
          "indexed": true,
          "internalType": "address",
          "name": "newOwner",
          "type": "address"
        }
      ],
      "name": "OwnershipTransferred",
      "type": "event"
    },
    {
      "anonymous": false,
      "inputs": [
        {
          "indexed": true,
          "internalType": "address",
          "name": "from",
          "type": "address"
        },
        {
          "indexed": true,
          "internalType": "address",
          "name": "to",
          "type": "address"
        },
        {
          "indexed": false,
          "internalType": "uint256",
          "name": "value",
          "type": "uint256"
        }
      ],
      "name": "Transfer",
      "type": "event"
    },
    {
      "anonymous": false,
      "inputs": [
        {
          "indexed": true,
          "internalType": "address",
          "name": "owner",
          "type": "address"
        },
        {
          "indexed": false,
          "internalType": "uint256",
          "name": "amount",
          "type": "uint256"
        },
        {
          "indexed": false,
          "internalType": "string",
          "name": "message",
          "type": "string"
        }
      ],
      "name": "additionalTokensMinted",
      "type": "event"
    },
    {
      "anonymous": false,
      "inputs": [
        {
          "indexed": true,
          "internalType": "address",
          "name": "owner",
          "type": "address"
        },
        {
          "indexed": false,
          "internalType": "uint256",
          "name": "amount",
          "type": "uint256"
        },
        {
          "indexed": false,
          "internalType": "string",
          "name": "message",
          "type": "string"
        }
      ],
      "name": "tokensBurned",
      "type": "event"
    },
    {
      "anonymous": false,
      "inputs": [
        {
          "indexed": true,
          "internalType": "address",
          "name": "owner",
          "type": "address"
        },
        {
          "indexed": false,
          "internalType": "uint256",
          "name": "amount",
          "type": "uint256"
        },
        {
          "indexed": false,
          "internalType": "string",
          "name": "message",
          "type": "string"
        }
      ],
      "name": "tokensMinted",
      "type": "event"
    },
    {
      "anonymous": false,
      "inputs": [
        {
          "indexed": true,
          "internalType": "address",
          "name": "owner",
          "type": "address"
        },
        {
          "indexed": false,
          "internalType": "uint256",
          "name": "amount",
          "type": "uint256"
        },
        {
          "indexed": false,
          "internalType": "string",
          "name": "message",
          "type": "string"
        }
      ],
      "name": "tokensTransfer",
      "type": "event"
    },
    {
      "inputs": [
        {
          "internalType": "address",
          "name": "",
          "type": "address"
        }
      ],
      "name": "_balances",
      "outputs": [
        {
          "internalType": "uint256",
          "name": "",
          "type": "uint256"
        }
      ],
      "stateMutability": "view",
      "type": "function"
    },
    {
      "inputs": [
        {
          "internalType": "address",
          "name": "owner",
          "type": "address"
        },
        {
          "internalType": "address",
          "name": "spender",
          "type": "address"
        }
      ],
      "name": "allowance",
      "outputs": [
        {
          "internalType": "uint256",
          "name": "",
          "type": "uint256"
        }
      ],
      "stateMutability": "view",
      "type": "function"
    },
    {
      "inputs": [
        {
          "internalType": "address",
          "name": "spender",
          "type": "address"
        },
        {
          "internalType": "uint256",
          "name": "amount",
          "type": "uint256"
        }
      ],
      "name": "approve",
      "outputs": [
        {
          "internalType": "bool",
          "name": "",
          "type": "bool"
        }
      ],
      "stateMutability": "nonpayable",
      "type": "function"
    },
    {
      "inputs": [
        {
          "internalType": "address",
          "name": "account",
          "type": "address"
        }
      ],
      "name": "balanceOf",
      "outputs": [
        {
          "internalType": "uint256",
          "name": "",
          "type": "uint256"
        }
      ],
      "stateMutability": "view",
      "type": "function"
    },
    {
      "inputs": [
        {
          "internalType": "uint256",
          "name": "amount",
          "type": "uint256"
        }
      ],
      "name": "burn",
      "outputs": [],
      "stateMutability": "nonpayable",
      "type": "function"
    },
    {
      "inputs": [
        {
          "internalType": "address",
          "name": "account",
          "type": "address"
        },
        {
          "internalType": "uint256",
          "name": "amount",
          "type": "uint256"
        }
      ],
      "name": "burnFrom",
      "outputs": [],
      "stateMutability": "nonpayable",
      "type": "function"
    },
    {
      "inputs": [],
      "name": "decimals",
      "outputs": [
        {
          "internalType": "uint8",
          "name": "",
          "type": "uint8"
        }
      ],
      "stateMutability": "pure",
      "type": "function"
    },
    {
      "inputs": [
        {
          "internalType": "address",
          "name": "spender",
          "type": "address"
        },
        {
          "internalType": "uint256",
          "name": "subtractedValue",
          "type": "uint256"
        }
      ],
      "name": "decreaseAllowance",
      "outputs": [
        {
          "internalType": "bool",
          "name": "",
          "type": "bool"
        }
      ],
      "stateMutability": "nonpayable",
      "type": "function"
    },
    {
      "inputs": [
        {
          "internalType": "address",
          "name": "spender",
          "type": "address"
        },
        {
          "internalType": "uint256",
          "name": "addedValue",
          "type": "uint256"
        }
      ],
      "name": "increaseAllowance",
      "outputs": [
        {
          "internalType": "bool",
          "name": "",
          "type": "bool"
        }
      ],
      "stateMutability": "nonpayable",
      "type": "function"
    },
    {
      "inputs": [
        {
          "internalType": "address",
          "name": "to",
          "type": "address"
        },
        {
          "internalType": "uint256",
          "name": "amount",
          "type": "uint256"
        }
      ],
      "name": "mint",
      "outputs": [],
      "stateMutability": "nonpayable",
      "type": "function"
    },
    {
      "inputs": [],
      "name": "name",
      "outputs": [
        {
          "internalType": "string",
          "name": "",
          "type": "string"
        }
      ],
      "stateMutability": "view",
      "type": "function"
    },
    {
      "inputs": [],
      "name": "owner",
      "outputs": [
        {
          "internalType": "address",
          "name": "",
          "type": "address"
        }
      ],
      "stateMutability": "view",
      "type": "function"
    },
    {
      "inputs": [],
      "name": "renounceOwnership",
      "outputs": [],
      "stateMutability": "nonpayable",
      "type": "function"
    },
    {
      "inputs": [],
      "name": "symbol",
      "outputs": [
        {
          "internalType": "string",
          "name": "",
          "type": "string"
        }
      ],
      "stateMutability": "view",
      "type": "function"
    },
    {
      "inputs": [],
      "name": "totalSupply",
      "outputs": [
        {
          "internalType": "uint256",
          "name": "",
          "type": "uint256"
        }
      ],
      "stateMutability": "view",
      "type": "function"
    },
    {
      "inputs": [
        {
          "internalType": "address",
          "name": "to",
          "type": "address"
        },
        {
          "internalType": "uint256",
          "name": "amount",
          "type": "uint256"
        }
      ],
      "name": "transfer",
      "outputs": [
        {
          "internalType": "bool",
          "name": "",
          "type": "bool"
        }
      ],
      "stateMutability": "nonpayable",
      "type": "function"
    },
    {
      "inputs": [
        {
          "internalType": "address",
          "name": "from",
          "type": "address"
        },
        {
          "internalType": "address",
          "name": "to",
          "type": "address"
        },
        {
          "internalType": "uint256",
          "name": "amount",
          "type": "uint256"
        }
      ],
      "name": "transferFrom",
      "outputs": [
        {
          "internalType": "bool",
          "name": "",
          "type": "bool"
        }
      ],
      "stateMutability": "nonpayable",
      "type": "function"
    },
    {
      "inputs": [
        {
          "internalType": "address",
          "name": "newOwner",
          "type": "address"
        }
      ],
      "name": "transferOwnership",
      "outputs": [],
      "stateMutability": "nonpayable",
      "type": "function"
    }
  ],
  "bytecode": "0x60806040523480156200001157600080fd5b506040518060400160405280600681526020017f4d4b436f696e00000000000000000000000000000000000000000000000000008152506040518060400160405280600481526020017f4d4b434e00000000000000000000000000000000000000000000000000000000815250816003908051906020019062000096929190620003ec565b508060049080519060200190620000af929190620003ec565b505050620000d2620000c66200019260201b60201c565b6200019a60201b60201c565b6200011033620000e76200026060201b60201c565b600a620000f591906200066b565b612710620001049190620007a8565b6200026960201b60201c565b3373ffffffffffffffffffffffffffffffffffffffff167f8d54cf4376f9d10619fbb6aded215dcdffc1b80415e0750f5064018278632d07620001586200026060201b60201c565b600a6200016691906200066b565b612710620001759190620007a8565b60405162000184919062000570565b60405180910390a2620008c1565b600033905090565b6000600560009054906101000a900473ffffffffffffffffffffffffffffffffffffffff16905081600560006101000a81548173ffffffffffffffffffffffffffffffffffffffff021916908373ffffffffffffffffffffffffffffffffffffffff1602179055508173ffffffffffffffffffffffffffffffffffffffff168173ffffffffffffffffffffffffffffffffffffffff167f8be0079c531659141344cd1fd0a4f28419497f9722a3daafe3b4186f6b6457e060405160405180910390a35050565b60006012905090565b600073ffffffffffffffffffffffffffffffffffffffff168273ffffffffffffffffffffffffffffffffffffffff161415620002dc576040517f08c379a0000000000000000000000000000000000000000000000000000000008152600401620002d39062000531565b60405180910390fd5b620002f060008383620003e260201b60201c565b8060026000828254620003049190620005b3565b92505081905550806000808473ffffffffffffffffffffffffffffffffffffffff1673ffffffffffffffffffffffffffffffffffffffff16815260200190815260200160002060008282546200035b9190620005b3565b925050819055508173ffffffffffffffffffffffffffffffffffffffff16600073ffffffffffffffffffffffffffffffffffffffff167fddf252ad1be2c89b69c2b068fc378daa952ba7f163c4a11628f55a4df523b3ef83604051620003c2919062000553565b60405180910390a3620003de60008383620003e760201b60201c565b5050565b505050565b505050565b828054620003fa9062000820565b90600052602060002090601f0160209004810192826200041e57600085556200046a565b82601f106200043957805160ff19168380011785556200046a565b828001600101855582156200046a579182015b82811115620004695782518255916020019190600101906200044c565b5b5090506200047991906200047d565b5090565b5b80821115620004985760008160009055506001016200047e565b5090565b6000620004ab602083620005a2565b91507f496e697469616c20737570706c79206f6620746f6b656e73206d696e7465642e6000830152602082019050919050565b6000620004ed601f83620005a2565b91507f45524332303a206d696e7420746f20746865207a65726f2061646472657373006000830152602082019050919050565b6200052b8162000809565b82525050565b600060208201905081810360008301526200054c81620004de565b9050919050565b60006020820190506200056a600083018462000520565b92915050565b600060408201905062000587600083018462000520565b81810360208301526200059a816200049c565b905092915050565b600082825260208201905092915050565b6000620005c08262000809565b9150620005cd8362000809565b9250827fffffffffffffffffffffffffffffffffffffffffffffffffffffffffffffffff0382111562000605576200060462000856565b5b828201905092915050565b6000808291508390505b600185111562000662578086048111156200063a576200063962000856565b5b60018516156200064a5780820291505b80810290506200065a85620008b4565b94506200061a565b94509492505050565b6000620006788262000809565b9150620006858362000813565b9250620006b47fffffffffffffffffffffffffffffffffffffffffffffffffffffffffffffffff8484620006bc565b905092915050565b600082620006ce5760019050620007a1565b81620006de5760009050620007a1565b8160018114620006f75760028114620007025762000738565b6001915050620007a1565b60ff84111562000717576200071662000856565b5b8360020a91508482111562000731576200073062000856565b5b50620007a1565b5060208310610133831016604e8410600b8410161715620007725782820a9050838111156200076c576200076b62000856565b5b620007a1565b62000781848484600162000610565b925090508184048111156200079b576200079a62000856565b5b81810290505b9392505050565b6000620007b58262000809565b9150620007c28362000809565b9250817fffffffffffffffffffffffffffffffffffffffffffffffffffffffffffffffff0483118215151615620007fe57620007fd62000856565b5b828202905092915050565b6000819050919050565b600060ff82169050919050565b600060028204905060018216806200083957607f821691505b6020821081141562000850576200084f62000885565b5b50919050565b7f4e487b7100000000000000000000000000000000000000000000000000000000600052601160045260246000fd5b7f4e487b7100000000000000000000000000000000000000000000000000000000600052602260045260246000fd5b60008160011c9050919050565b611f5d80620008d16000396000f3fe608060405234801561001057600080fd5b50600436106101165760003560e01c806370a08231116100a257806395d89b411161007157806395d89b41146102e1578063a457c2d7146102ff578063a9059cbb1461032f578063dd62ed3e1461035f578063f2fde38b1461038f57610116565b806370a082311461026d578063715018a61461029d57806379cc6790146102a75780638da5cb5b146102c357610116565b8063313ce567116100e9578063313ce567146101b757806339509351146101d557806340c10f191461020557806342966c68146102215780636ebcf6071461023d57610116565b806306fdde031461011b578063095ea7b31461013957806318160ddd1461016957806323b872dd14610187575b600080fd5b6101236103ab565b6040516101309190611af6565b60405180910390f35b610153600480360381019061014e9190611510565b61043d565b6040516101609190611adb565b60405180910390f35b610171610460565b60405161017e9190611c98565b60405180910390f35b6101a1600480360381019061019c91906114c1565b61046a565b6040516101ae9190611adb565b60405180910390f35b6101bf610499565b6040516101cc9190611d0f565b60405180910390f35b6101ef60048036038101906101ea9190611510565b6104a2565b6040516101fc9190611adb565b60405180910390f35b61021f600480360381019061021a9190611510565b61054c565b005b61023b6004803603810190610236919061154c565b610624565b005b6102576004803603810190610252919061145c565b6106fb565b6040516102649190611c98565b60405180910390f35b6102876004803603810190610282919061145c565b610713565b6040516102949190611c98565b60405180910390f35b6102a561075b565b005b6102c160048036038101906102bc9190611510565b6107e3565b005b6102cb610803565b6040516102d89190611ac0565b60405180910390f35b6102e961082d565b6040516102f69190611af6565b60405180910390f35b61031960048036038101906103149190611510565b6108bf565b6040516103269190611adb565b60405180910390f35b61034960048036038101906103449190611510565b6109a9565b6040516103569190611adb565b60405180910390f35b61037960048036038101906103749190611485565b6109cc565b6040516103869190611c98565b60405180910390f35b6103a960048036038101906103a4919061145c565b610a53565b005b6060600380546103ba90611e58565b80601f01602080910402602001604051908101604052809291908181526020018280546103e690611e58565b80156104335780601f1061040857610100808354040283529160200191610433565b820191906000526020600020905b81548152906001019060200180831161041657829003601f168201915b5050505050905090565b600080610448610b4b565b9050610455818585610b53565b600191505092915050565b6000600254905090565b600080610475610b4b565b9050610482858285610d1e565b61048d858585610daa565b60019150509392505050565b60006012905090565b6000806104ad610b4b565b9050610541818585600160008673ffffffffffffffffffffffffffffffffffffffff1673ffffffffffffffffffffffffffffffffffffffff16815260200190815260200160002060008973ffffffffffffffffffffffffffffffffffffffff1673ffffffffffffffffffffffffffffffffffffffff1681526020019081526020016000205461053c9190611d46565b610b53565b600191505092915050565b610554610b4b565b73ffffffffffffffffffffffffffffffffffffffff16610572610803565b73ffffffffffffffffffffffffffffffffffffffff16146105c8576040517f08c379a00000000000000000000000000000000000000000000000000000000081526004016105bf90611bd8565b60405180910390fd5b6105d2828261102b565b3373ffffffffffffffffffffffffffffffffffffffff167fc31b604bce0888a4f5e36e76eee33516a5fff7a5d58ac7dcead8174c323eebf2826040516106189190611ce1565b60405180910390a25050565b61062c610b4b565b73ffffffffffffffffffffffffffffffffffffffff1661064a610803565b73ffffffffffffffffffffffffffffffffffffffff16146106a0576040517f08c379a000000000000000000000000000000000000000000000000000000000815260040161069790611bd8565b60405180910390fd5b6106aa338261118b565b3373ffffffffffffffffffffffffffffffffffffffff167fcde716650b13ae41f235d679e62500d67355bc41802e6cfc087b67a7850d975f826040516106f09190611cb3565b60405180910390a250565b60066020528060005260406000206000915090505481565b60008060008373ffffffffffffffffffffffffffffffffffffffff1673ffffffffffffffffffffffffffffffffffffffff168152602001908152602001600020549050919050565b610763610b4b565b73ffffffffffffffffffffffffffffffffffffffff16610781610803565b73ffffffffffffffffffffffffffffffffffffffff16146107d7576040517f08c379a00000000000000000000000000000000000000000000000000000000081526004016107ce90611bd8565b60405180910390fd5b6107e16000611362565b565b6107f5826107ef610b4b565b83610d1e565b6107ff828261118b565b5050565b6000600560009054906101000a900473ffffffffffffffffffffffffffffffffffffffff16905090565b60606004805461083c90611e58565b80601f016020809104026020016040519081016040528092919081815260200182805461086890611e58565b80156108b55780601f1061088a576101008083540402835291602001916108b5565b820191906000526020600020905b81548152906001019060200180831161089857829003601f168201915b5050505050905090565b6000806108ca610b4b565b90506000600160008373ffffffffffffffffffffffffffffffffffffffff1673ffffffffffffffffffffffffffffffffffffffff16815260200190815260200160002060008673ffffffffffffffffffffffffffffffffffffffff1673ffffffffffffffffffffffffffffffffffffffff16815260200190815260200160002054905083811015610990576040517f08c379a000000000000000000000000000000000000000000000000000000000815260040161098790611c58565b60405180910390fd5b61099d8286868403610b53565b60019250505092915050565b6000806109b4610b4b565b90506109c1818585610daa565b600191505092915050565b6000600160008473ffffffffffffffffffffffffffffffffffffffff1673ffffffffffffffffffffffffffffffffffffffff16815260200190815260200160002060008373ffffffffffffffffffffffffffffffffffffffff1673ffffffffffffffffffffffffffffffffffffffff16815260200190815260200160002054905092915050565b610a5b610b4b565b73ffffffffffffffffffffffffffffffffffffffff16610a79610803565b73ffffffffffffffffffffffffffffffffffffffff1614610acf576040517f08c379a0000000000000000000000000000000000000000000000000000000008152600401610ac690611bd8565b60405180910390fd5b600073ffffffffffffffffffffffffffffffffffffffff168173ffffffffffffffffffffffffffffffffffffffff161415610b3f576040517f08c379a0000000000000000000000000000000000000000000000000000000008152600401610b3690611b58565b60405180910390fd5b610b4881611362565b50565b600033905090565b600073ffffffffffffffffffffffffffffffffffffffff168373ffffffffffffffffffffffffffffffffffffffff161415610bc3576040517f08c379a0000000000000000000000000000000000000000000000000000000008152600401610bba90611c38565b60405180910390fd5b600073ffffffffffffffffffffffffffffffffffffffff168273ffffffffffffffffffffffffffffffffffffffff161415610c33576040517f08c379a0000000000000000000000000000000000000000000000000000000008152600401610c2a90611b78565b60405180910390fd5b80600160008573ffffffffffffffffffffffffffffffffffffffff1673ffffffffffffffffffffffffffffffffffffffff16815260200190815260200160002060008473ffffffffffffffffffffffffffffffffffffffff1673ffffffffffffffffffffffffffffffffffffffff168152602001908152602001600020819055508173ffffffffffffffffffffffffffffffffffffffff168373ffffffffffffffffffffffffffffffffffffffff167f8c5be1e5ebec7d5bd14f71427d1e84f3dd0314c0f7b2291e5b200ac8c7c3b92583604051610d119190611c98565b60405180910390a3505050565b6000610d2a84846109cc565b90507fffffffffffffffffffffffffffffffffffffffffffffffffffffffffffffffff8114610da45781811015610d96576040517f08c379a0000000000000000000000000000000000000000000000000000000008152600401610d8d90611b98565b60405180910390fd5b610da38484848403610b53565b5b50505050565b600073ffffffffffffffffffffffffffffffffffffffff168373ffffffffffffffffffffffffffffffffffffffff161415610e1a576040517f08c379a0000000000000000000000000000000000000000000000000000000008152600401610e1190611c18565b60405180910390fd5b600073ffffffffffffffffffffffffffffffffffffffff168273ffffffffffffffffffffffffffffffffffffffff161415610e8a576040517f08c379a0000000000000000000000000000000000000000000000000000000008152600401610e8190611b18565b60405180910390fd5b610e95838383611428565b60008060008573ffffffffffffffffffffffffffffffffffffffff1673ffffffffffffffffffffffffffffffffffffffff16815260200190815260200160002054905081811015610f1b576040517f08c379a0000000000000000000000000000000000000000000000000000000008152600401610f1290611bb8565b60405180910390fd5b8181036000808673ffffffffffffffffffffffffffffffffffffffff1673ffffffffffffffffffffffffffffffffffffffff16815260200190815260200160002081905550816000808573ffffffffffffffffffffffffffffffffffffffff1673ffffffffffffffffffffffffffffffffffffffff1681526020019081526020016000206000828254610fae9190611d46565b925050819055508273ffffffffffffffffffffffffffffffffffffffff168473ffffffffffffffffffffffffffffffffffffffff167fddf252ad1be2c89b69c2b068fc378daa952ba7f163c4a11628f55a4df523b3ef846040516110129190611c98565b60405180910390a361102584848461142d565b50505050565b600073ffffffffffffffffffffffffffffffffffffffff168273ffffffffffffffffffffffffffffffffffffffff16141561109b576040517f08c379a000000000000000000000000000000000000000000000000000000000815260040161109290611c78565b60405180910390fd5b6110a760008383611428565b80600260008282546110b99190611d46565b92505081905550806000808473ffffffffffffffffffffffffffffffffffffffff1673ffffffffffffffffffffffffffffffffffffffff168152602001908152602001600020600082825461110e9190611d46565b925050819055508173ffffffffffffffffffffffffffffffffffffffff16600073ffffffffffffffffffffffffffffffffffffffff167fddf252ad1be2c89b69c2b068fc378daa952ba7f163c4a11628f55a4df523b3ef836040516111739190611c98565b60405180910390a36111876000838361142d565b5050565b600073ffffffffffffffffffffffffffffffffffffffff168273ffffffffffffffffffffffffffffffffffffffff1614156111fb576040517f08c379a00000000000000000000000000000000000000000000000000000000081526004016111f290611bf8565b60405180910390fd5b61120782600083611428565b60008060008473ffffffffffffffffffffffffffffffffffffffff1673ffffffffffffffffffffffffffffffffffffffff1681526020019081526020016000205490508181101561128d576040517f08c379a000000000000000000000000000000000000000000000000000000000815260040161128490611b38565b60405180910390fd5b8181036000808573ffffffffffffffffffffffffffffffffffffffff1673ffffffffffffffffffffffffffffffffffffffff1681526020019081526020016000208190555081600260008282546112e49190611d9c565b92505081905550600073ffffffffffffffffffffffffffffffffffffffff168373ffffffffffffffffffffffffffffffffffffffff167fddf252ad1be2c89b69c2b068fc378daa952ba7f163c4a11628f55a4df523b3ef846040516113499190611c98565b60405180910390a361135d8360008461142d565b505050565b6000600560009054906101000a900473ffffffffffffffffffffffffffffffffffffffff16905081600560006101000a81548173ffffffffffffffffffffffffffffffffffffffff021916908373ffffffffffffffffffffffffffffffffffffffff1602179055508173ffffffffffffffffffffffffffffffffffffffff168173ffffffffffffffffffffffffffffffffffffffff167f8be0079c531659141344cd1fd0a4f28419497f9722a3daafe3b4186f6b6457e060405160405180910390a35050565b505050565b505050565b60008135905061144181611ef9565b92915050565b60008135905061145681611f10565b92915050565b60006020828403121561146e57600080fd5b600061147c84828501611432565b91505092915050565b6000806040838503121561149857600080fd5b60006114a685828601611432565b92505060206114b785828601611432565b9150509250929050565b6000806000606084860312156114d657600080fd5b60006114e486828701611432565b93505060206114f586828701611432565b925050604061150686828701611447565b9150509250925092565b6000806040838503121561152357600080fd5b600061153185828601611432565b925050602061154285828601611447565b9150509250929050565b60006020828403121561155e57600080fd5b600061156c84828501611447565b91505092915050565b61157e81611dd0565b82525050565b61158d81611de2565b82525050565b600061159e82611d2a565b6115a88185611d35565b93506115b8818560208601611e25565b6115c181611ee8565b840191505092915050565b60006115d9602383611d35565b91507f45524332303a207472616e7366657220746f20746865207a65726f206164647260008301527f65737300000000000000000000000000000000000000000000000000000000006020830152604082019050919050565b600061163f602283611d35565b91507f45524332303a206275726e20616d6f756e7420657863656564732062616c616e60008301527f63650000000000000000000000000000000000000000000000000000000000006020830152604082019050919050565b60006116a5602683611d35565b91507f4f776e61626c653a206e6577206f776e657220697320746865207a65726f206160008301527f64647265737300000000000000000000000000000000000000000000000000006020830152604082019050919050565b600061170b602283611d35565b91507f45524332303a20617070726f766520746f20746865207a65726f20616464726560008301527f73730000000000000000000000000000000000000000000000000000000000006020830152604082019050919050565b6000611771601d83611d35565b91507f45524332303a20696e73756666696369656e7420616c6c6f77616e63650000006000830152602082019050919050565b60006117b1602683611d35565b91507f45524332303a207472616e7366657220616d6f756e742065786365656473206260008301527f616c616e636500000000000000000000000000000000000000000000000000006020830152604082019050919050565b6000611817600e83611d35565b91507f546f6b656e73206275726e65642e0000000000000000000000000000000000006000830152602082019050919050565b6000611857602083611d35565b91507f4f776e61626c653a2063616c6c6572206973206e6f7420746865206f776e65726000830152602082019050919050565b6000611897602183611d35565b91507f45524332303a206275726e2066726f6d20746865207a65726f2061646472657360008301527f73000000000000000000000000000000000000000000000000000000000000006020830152604082019050919050565b60006118fd601983611d35565b91507f4164646974696f6e616c20746f6b656e73206d696e7465642e000000000000006000830152602082019050919050565b600061193d602583611d35565b91507f45524332303a207472616e736665722066726f6d20746865207a65726f20616460008301527f64726573730000000000000000000000000000000000000000000000000000006020830152604082019050919050565b60006119a3602483611d35565b91507f45524332303a20617070726f76652066726f6d20746865207a65726f2061646460008301527f72657373000000000000000000000000000000000000000000000000000000006020830152604082019050919050565b6000611a09602583611d35565b91507f45524332303a2064656372656173656420616c6c6f77616e63652062656c6f7760008301527f207a65726f0000000000000000000000000000000000000000000000000000006020830152604082019050919050565b6000611a6f601f83611d35565b91507f45524332303a206d696e7420746f20746865207a65726f2061646472657373006000830152602082019050919050565b611aab81611e0e565b82525050565b611aba81611e18565b82525050565b6000602082019050611ad56000830184611575565b92915050565b6000602082019050611af06000830184611584565b92915050565b60006020820190508181036000830152611b108184611593565b905092915050565b60006020820190508181036000830152611b31816115cc565b9050919050565b60006020820190508181036000830152611b5181611632565b9050919050565b60006020820190508181036000830152611b7181611698565b9050919050565b60006020820190508181036000830152611b91816116fe565b9050919050565b60006020820190508181036000830152611bb181611764565b9050919050565b60006020820190508181036000830152611bd1816117a4565b9050919050565b60006020820190508181036000830152611bf18161184a565b9050919050565b60006020820190508181036000830152611c118161188a565b9050919050565b60006020820190508181036000830152611c3181611930565b9050919050565b60006020820190508181036000830152611c5181611996565b9050919050565b60006020820190508181036000830152611c71816119fc565b9050919050565b60006020820190508181036000830152611c9181611a62565b9050919050565b6000602082019050611cad6000830184611aa2565b92915050565b6000604082019050611cc86000830184611aa2565b8181036020830152611cd98161180a565b905092915050565b6000604082019050611cf66000830184611aa2565b8181036020830152611d07816118f0565b905092915050565b6000602082019050611d246000830184611ab1565b92915050565b600081519050919050565b600082825260208201905092915050565b6000611d5182611e0e565b9150611d5c83611e0e565b9250827fffffffffffffffffffffffffffffffffffffffffffffffffffffffffffffffff03821115611d9157611d90611e8a565b5b828201905092915050565b6000611da782611e0e565b9150611db283611e0e565b925082821015611dc557611dc4611e8a565b5b828203905092915050565b6000611ddb82611dee565b9050919050565b60008115159050919050565b600073ffffffffffffffffffffffffffffffffffffffff82169050919050565b6000819050919050565b600060ff82169050919050565b60005b83811015611e43578082015181840152602081019050611e28565b83811115611e52576000848401525b50505050565b60006002820490506001821680611e7057607f821691505b60208210811415611e8457611e83611eb9565b5b50919050565b7f4e487b7100000000000000000000000000000000000000000000000000000000600052601160045260246000fd5b7f4e487b7100000000000000000000000000000000000000000000000000000000600052602260045260246000fd5b6000601f19601f8301169050919050565b611f0281611dd0565b8114611f0d57600080fd5b50565b611f1981611e0e565b8114611f2457600080fd5b5056fea2646970667358221220515e69947cf2c0e4b765b46f8af091be9d7a74c49c112dfa4e0a12e29a9c1d5064736f6c63430008000033",
  "linkReferences": {},
  "deployedLinkReferences": {}
}